{
  "transactions": [
    {
      "hash": "0x6f53ea3f0fc68e1e8aef57957f2c6f42f7c77aab708f4c5593d6713d4f2a861e",
      "transactionType": "CALL",
      "contractName": null,
      "contractAddress": "0x5f246ADDCF057E0f778CD422e20e413be70f9a0c",
      "function": null,
      "arguments": null,
      "transaction": {
        "type": "0x02",
        "from": "0xf39fd6e51aad88f6f4ce6ab8827279cfffb92266",
        "to": "0x5f246addcf057e0f778cd422e20e413be70f9a0c",
        "gas": "0x743a",
        "value": "0x0",
        "data": "0xa3f4df7e",
        "nonce": "0x29b",
        "accessList": []
      },
      "additionalContracts": [],
      "isFixedGasLimit": false
    },
    {
      "hash": "0x92f499cc67789b977f0c65387dee81781400a302d4e9914fdba140c32db834b7",
      "transactionType": "CALL",
      "contractName": "Dai",
      "contractAddress": "0x6B175474E89094C44Da98b954EedeAC495271d0F",
      "function": "approve(address,uint256):(bool)",
      "arguments": [
        "0xd491DecCB5FD9a0d83d78E75EFD1f92d691Cf8C5",
        "1000000000000000000000"
      ],
      "transaction": {
        "type": "0x02",
        "from": "0xf39fd6e51aad88f6f4ce6ab8827279cfffb92266",
        "to": "0x6b175474e89094c44da98b954eedeac495271d0f",
        "gas": "0xf90a",
        "value": "0x0",
        "data": "0x095ea7b3000000000000000000000000d491deccb5fd9a0d83d78e75efd1f92d691cf8c500000000000000000000000000000000000000000000003635c9adc5dea00000",
        "nonce": "0x29c",
        "accessList": []
      },
      "additionalContracts": [],
      "isFixedGasLimit": false
    },
    {
      "hash": "0x01916b47c22060b675a8167260c4a09fd0c963ca3cadb54e68cdebd963588b92",
      "transactionType": "CALL",
      "contractName": null,
      "contractAddress": "0xd491DecCB5FD9a0d83d78E75EFD1f92d691Cf8C5",
      "function": null,
      "arguments": null,
      "transaction": {
        "type": "0x02",
        "from": "0xf39fd6e51aad88f6f4ce6ab8827279cfffb92266",
        "to": "0xd491deccb5fd9a0d83d78e75efd1f92d691cf8c5",
        "gas": "0x17e9e7",
        "value": "0x0",
        "data": "0xa42bf16500000000000000000000000000000000000000000000000000000000000000400000000000000000000000000000000000000000000000000000000000000180000000000000000000000000f39fd6e51aad88f6f4ce6ab8827279cfffb92266000000000000000000000000c02aaa39b223fe8d0a0e5c4f27ead9083c756cc20000000000000000000000006b175474e89094c44da98b954eedeac495271d0f000000000000000000000000000000000000000000000000016345785d8a000000000000000000000000000000000000000000000000003635c9adc5dea00000000000000000000000000000000000000000000000000000000000000000010000000000000000000000000000000000000000000000000000000000000000000000000000000000000000000000000000000000000000000000000000000000000000000000000000000000000000000000000000000000000000000000000473444149000000000000000000000000000000000000000000000000000000000000000000000000000000000000000000000000000000000000000000000380000000000000000000000000000000000000000000000000000000000000004000000000000000000000000000000000000000000000000000000000000001800000000000000000000000000000000000000000000000000000000000000003000000000000000000000000000000000000000000000000000000000000006000000000000000000000000000000000000000000000000000000000000000a000000000000000000000000000000000000000000000000000000000000000e00000000000000000000000000000000000000000000000000000000000000004734441490000000000000000000000000000000000000000000000000000000000000000000000000000000000000000000000000000000000000000000000064161766556330000000000000000000000000000000000000000000000000000000000000000000000000000000000000000000000000000000000000000000641617665563300000000000000000000000000000000000000000000000000000000000000000000000000000000000000000000000000000000000000000003000000000000000000000000000000000000000000000000000000000000006000000000000000000000000000000000000000000000000000000000000000c000000000000000000000000000000000000000000000000000000000000001400000000000000000000000000000000000000000000000000000000000000024b6b55f2500000000000000000000000000000000000000000000003635c9adc5dea0000000000000000000000000000000000000000000000000000000000000000000000000000000000000000000000000000000000000000000000000004447e7ef240000000000000000000000006b175474e89094c44da98b954eedeac495271d0f00000000000000000000000000000000000000000000003635c9adc5dea00000000000000000000000000000000000000000000000000000000000000000000000000000000000000000000000000000000000000000000000000064c1bce0b7000000000000000000000000c02aaa39b223fe8d0a0e5c4f27ead9083c756cc2000000000000000000000000000000000000000000000000016345785d8a0000000000000000000000000000000000000000000000000000000000000000000200000000000000000000000000000000000000000000000000000000",
        "nonce": "0x29d",
        "accessList": []
      },
      "additionalContracts": [
        {
          "transactionType": "CREATE2",
          "address": "0x840db5cC5401045dff4104827f28708954ACaab8",
          "initCode": "0x3d602d80600a3d3981f3363d3d373d3d3d363d730dee24c99e8df7f0e058f4f48f228cc07db704fc5af43d82803e903d91602b57fd5bf3"
        }
      ],
      "isFixedGasLimit": false
    }
  ],
  "receipts": [
    {
      "transactionHash": "0x6f53ea3f0fc68e1e8aef57957f2c6f42f7c77aab708f4c5593d6713d4f2a861e",
      "transactionIndex": "0x0",
      "blockHash": "0x8b9aa014bfee2786e8e8a55de0ccd4b95be67a28dbfa8ac3153f6e736952c96a",
      "blockNumber": "0x11ddfec",
      "from": "0xf39Fd6e51aad88F6F4ce6aB8827279cffFb92266",
      "to": "0x5f246ADDCF057E0f778CD422e20e413be70f9a0c",
      "cumulativeGasUsed": "0x5426",
      "gasUsed": "0x5426",
      "contractAddress": null,
      "logs": [],
      "status": "0x1",
      "logsBloom": "0x00000000000000000000000000000000000000000000000000000000000000000000000000000000000000000000000000000000000000000000000000000000000000000000000000000000000000000000000000000000000000000000000000000000000000000000000000000000000000000000000000000000000000000000000000000000000000000000000000000000000000000000000000000000000000000000000000000000000000000000000000000000000000000000000000000000000000000000000000000000000000000000000000000000000000000000000000000000000000000000000000000000000000000000000000000000",
      "type": "0x2",
      "effectiveGasPrice": "0xdcc02909"
    },
    {
      "transactionHash": "0x92f499cc67789b977f0c65387dee81781400a302d4e9914fdba140c32db834b7",
      "transactionIndex": "0x0",
      "blockHash": "0x388e6a2689bb1591c101f62ce307a294a6ad93f65283592ad88a31537b512c1a",
      "blockNumber": "0x11ddfed",
      "from": "0xf39Fd6e51aad88F6F4ce6aB8827279cffFb92266",
      "to": "0x6B175474E89094C44Da98b954EedeAC495271d0F",
      "cumulativeGasUsed": "0xb44e",
      "gasUsed": "0xb44e",
      "contractAddress": null,
      "logs": [
        {
          "address": "0x6B175474E89094C44Da98b954EedeAC495271d0F",
          "topics": [
            "0x8c5be1e5ebec7d5bd14f71427d1e84f3dd0314c0f7b2291e5b200ac8c7c3b925",
            "0x000000000000000000000000f39fd6e51aad88f6f4ce6ab8827279cfffb92266",
            "0x000000000000000000000000d491deccb5fd9a0d83d78e75efd1f92d691cf8c5"
          ],
          "data": "0x00000000000000000000000000000000000000000000003635c9adc5dea00000",
          "blockHash": "0x388e6a2689bb1591c101f62ce307a294a6ad93f65283592ad88a31537b512c1a",
          "blockNumber": "0x11ddfed",
          "transactionHash": "0x92f499cc67789b977f0c65387dee81781400a302d4e9914fdba140c32db834b7",
          "transactionIndex": "0x0",
          "logIndex": "0x0",
          "transactionLogIndex": "0x0",
          "removed": false
        }
      ],
      "status": "0x1",
      "logsBloom": "0x00000000000000000400000000000000000000000200000000000000000000000000000000000000000000000000000000000000000000000000000000200000000000000000000000000008000000000000000000000000000000000000000010000000000000000000000100000000000000000000000000000000000000000000000000000000000000000000000000000000000000000000000000000000020000000000000000000000000000000000000000000000000000000000000000000000000000200000000000000000000002002000000000000000000000000010001000000000000000000000000000000000000000000000000000000000",
      "type": "0x2",
      "effectiveGasPrice": "0xd7841d09"
    },
    {
      "transactionHash": "0x01916b47c22060b675a8167260c4a09fd0c963ca3cadb54e68cdebd963588b92",
      "transactionIndex": "0x1",
      "blockHash": "0x388e6a2689bb1591c101f62ce307a294a6ad93f65283592ad88a31537b512c1a",
      "blockNumber": "0x11ddfed",
      "from": "0xf39Fd6e51aad88F6F4ce6aB8827279cffFb92266",
      "to": "0xd491DecCB5FD9a0d83d78E75EFD1f92d691Cf8C5",
      "cumulativeGasUsed": "0x110d61",
      "gasUsed": "0x105913",
      "contractAddress": null,
      "logs": [
        {
          "address": "0x6B175474E89094C44Da98b954EedeAC495271d0F",
          "topics": [
            "0xddf252ad1be2c89b69c2b068fc378daa952ba7f163c4a11628f55a4df523b3ef",
            "0x000000000000000000000000f39fd6e51aad88f6f4ce6ab8827279cfffb92266",
            "0x000000000000000000000000d491deccb5fd9a0d83d78e75efd1f92d691cf8c5"
          ],
          "data": "0x00000000000000000000000000000000000000000000003635c9adc5dea00000",
          "blockHash": "0x388e6a2689bb1591c101f62ce307a294a6ad93f65283592ad88a31537b512c1a",
          "blockNumber": "0x11ddfed",
          "transactionHash": "0x01916b47c22060b675a8167260c4a09fd0c963ca3cadb54e68cdebd963588b92",
          "transactionIndex": "0x1",
          "logIndex": "0x1f",
          "transactionLogIndex": "0x0",
          "removed": false
        },
        {
          "address": "0x840db5cC5401045dff4104827f28708954ACaab8",
          "topics": [
            "0xc7f505b2f371ae2175ee4913f4499e1f2633a7b5936321eed1cdaeb6115181d2"
          ],
          "data": "0x0000000000000000000000000000000000000000000000000000000000000001",
          "blockHash": "0x388e6a2689bb1591c101f62ce307a294a6ad93f65283592ad88a31537b512c1a",
          "blockNumber": "0x11ddfed",
          "transactionHash": "0x01916b47c22060b675a8167260c4a09fd0c963ca3cadb54e68cdebd963588b92",
          "transactionIndex": "0x1",
          "logIndex": "0x20",
          "transactionLogIndex": "0x1",
          "removed": false
        },
        {
          "address": "0xd491DecCB5FD9a0d83d78E75EFD1f92d691Cf8C5",
          "topics": [
            "0xac631f3001b55ea1509cf3d7e74898f85392a61a76e8149181ae1259622dabc8",
            "0x000000000000000000000000840db5cc5401045dff4104827f28708954acaab8",
            "0x000000000000000000000000f39fd6e51aad88f6f4ce6ab8827279cfffb92266"
          ],
          "data": "0x",
          "blockHash": "0x388e6a2689bb1591c101f62ce307a294a6ad93f65283592ad88a31537b512c1a",
          "blockNumber": "0x11ddfed",
          "transactionHash": "0x01916b47c22060b675a8167260c4a09fd0c963ca3cadb54e68cdebd963588b92",
          "transactionIndex": "0x1",
          "logIndex": "0x21",
          "transactionLogIndex": "0x2",
          "removed": false
        },
        {
          "address": "0x6B175474E89094C44Da98b954EedeAC495271d0F",
          "topics": [
            "0x8c5be1e5ebec7d5bd14f71427d1e84f3dd0314c0f7b2291e5b200ac8c7c3b925",
            "0x000000000000000000000000d491deccb5fd9a0d83d78e75efd1f92d691cf8c5",
            "0x000000000000000000000000840db5cc5401045dff4104827f28708954acaab8"
          ],
          "data": "0x00000000000000000000000000000000000000000000006c6b935b8bbd400000",
          "blockHash": "0x388e6a2689bb1591c101f62ce307a294a6ad93f65283592ad88a31537b512c1a",
          "blockNumber": "0x11ddfed",
          "transactionHash": "0x01916b47c22060b675a8167260c4a09fd0c963ca3cadb54e68cdebd963588b92",
          "transactionIndex": "0x1",
          "logIndex": "0x22",
          "transactionLogIndex": "0x3",
          "removed": false
        },
        {
          "address": "0x3C2BafebbB0c8c58f39A976e725cD20D611d01e9",
          "topics": [
            "0xddf252ad1be2c89b69c2b068fc378daa952ba7f163c4a11628f55a4df523b3ef",
            "0x000000000000000000000000d491deccb5fd9a0d83d78e75efd1f92d691cf8c5",
            "0x0000000000000000000000000000000000000000000000000000000000000000"
          ],
          "data": "0x00000000000000000000000000000000000000000000003635c9adc5dea00000",
          "blockHash": "0x388e6a2689bb1591c101f62ce307a294a6ad93f65283592ad88a31537b512c1a",
          "blockNumber": "0x11ddfed",
          "transactionHash": "0x01916b47c22060b675a8167260c4a09fd0c963ca3cadb54e68cdebd963588b92",
          "transactionIndex": "0x1",
          "logIndex": "0x23",
          "transactionLogIndex": "0x4",
          "removed": false
        },
        {
          "address": "0x6B175474E89094C44Da98b954EedeAC495271d0F",
          "topics": [
            "0xddf252ad1be2c89b69c2b068fc378daa952ba7f163c4a11628f55a4df523b3ef",
            "0x0000000000000000000000003c2bafebbb0c8c58f39a976e725cd20d611d01e9",
            "0x000000000000000000000000d491deccb5fd9a0d83d78e75efd1f92d691cf8c5"
          ],
          "data": "0x00000000000000000000000000000000000000000000003635c9adc5dea00000",
          "blockHash": "0x388e6a2689bb1591c101f62ce307a294a6ad93f65283592ad88a31537b512c1a",
          "blockNumber": "0x11ddfed",
          "transactionHash": "0x01916b47c22060b675a8167260c4a09fd0c963ca3cadb54e68cdebd963588b92",
          "transactionIndex": "0x1",
          "logIndex": "0x24",
          "transactionLogIndex": "0x5",
          "removed": false
        },
        {
          "address": "0x3C2BafebbB0c8c58f39A976e725cD20D611d01e9",
          "topics": [
            "0xfbde797d201c681b91056529119e0b02407c7bb96a4a2c75c01fc9667232c8db",
            "0x000000000000000000000000d491deccb5fd9a0d83d78e75efd1f92d691cf8c5",
            "0x000000000000000000000000d491deccb5fd9a0d83d78e75efd1f92d691cf8c5",
            "0x000000000000000000000000d491deccb5fd9a0d83d78e75efd1f92d691cf8c5"
          ],
          "data": "0x00000000000000000000000000000000000000000000003635c9adc5dea0000000000000000000000000000000000000000000000000003635c9adc5dea00000",
          "blockHash": "0x388e6a2689bb1591c101f62ce307a294a6ad93f65283592ad88a31537b512c1a",
          "blockNumber": "0x11ddfed",
          "transactionHash": "0x01916b47c22060b675a8167260c4a09fd0c963ca3cadb54e68cdebd963588b92",
          "transactionIndex": "0x1",
          "logIndex": "0x25",
          "transactionLogIndex": "0x6",
          "removed": false
        },
        {
          "address": "0x6B175474E89094C44Da98b954EedeAC495271d0F",
          "topics": [
            "0xddf252ad1be2c89b69c2b068fc378daa952ba7f163c4a11628f55a4df523b3ef",
            "0x000000000000000000000000d491deccb5fd9a0d83d78e75efd1f92d691cf8c5",
            "0x000000000000000000000000840db5cc5401045dff4104827f28708954acaab8"
          ],
          "data": "0x00000000000000000000000000000000000000000000006c6b935b8bbd400000",
          "blockHash": "0x388e6a2689bb1591c101f62ce307a294a6ad93f65283592ad88a31537b512c1a",
          "blockNumber": "0x11ddfed",
          "transactionHash": "0x01916b47c22060b675a8167260c4a09fd0c963ca3cadb54e68cdebd963588b92",
          "transactionIndex": "0x1",
          "logIndex": "0x26",
          "transactionLogIndex": "0x7",
          "removed": false
        },
        {
          "address": "0x6B175474E89094C44Da98b954EedeAC495271d0F",
          "topics": [
            "0x8c5be1e5ebec7d5bd14f71427d1e84f3dd0314c0f7b2291e5b200ac8c7c3b925",
            "0x000000000000000000000000840db5cc5401045dff4104827f28708954acaab8",
            "0x00000000000000000000000083f20f44975d03b1b09e64809b757c47f942beea"
          ],
          "data": "0x00000000000000000000000000000000000000000000003635c9adc5dea00000",
          "blockHash": "0x388e6a2689bb1591c101f62ce307a294a6ad93f65283592ad88a31537b512c1a",
          "blockNumber": "0x11ddfed",
          "transactionHash": "0x01916b47c22060b675a8167260c4a09fd0c963ca3cadb54e68cdebd963588b92",
          "transactionIndex": "0x1",
          "logIndex": "0x27",
          "transactionLogIndex": "0x8",
          "removed": false
        },
        {
          "address": "0x35D1b3F3D7966A1DFe207aa4514C12a259A0492B",
          "topics": [
            "0xf24e23eb00000000000000000000000000000000000000000000000000000000",
            "0x000000000000000000000000a950524441892a31ebddf91d3ceefa04bf454466",
            "0x000000000000000000000000197e90f9fad81970ba7976f33cbd77088e5d7cf7",
            "0x000000000000000000000064406f32f77a1d3e18b0c8f0350636abecac03a710"
          ],
          "data": "0x000000000000000000000000000000000000000000000000000000000000002000000000000000000000000000000000000000000000000000000000000000e0f24e23eb000000000000000000000000a950524441892a31ebddf91d3ceefa04bf454466000000000000000000000000197e90f9fad81970ba7976f33cbd77088e5d7cf7000000000000000000000064406f32f77a1d3e18b0c8f0350636abecac03a71000000000000000000000000000000000000000000000000000000000000000000000000000000000000000000000000000000000000000000000000000000000000000000000000000000000000000000000000000000000000000000000000000000000000000000000000000000000000000000000000000000000",
          "blockHash": "0x388e6a2689bb1591c101f62ce307a294a6ad93f65283592ad88a31537b512c1a",
          "blockNumber": "0x11ddfed",
          "transactionHash": "0x01916b47c22060b675a8167260c4a09fd0c963ca3cadb54e68cdebd963588b92",
          "transactionIndex": "0x1",
          "logIndex": "0x28",
          "transactionLogIndex": "0x9",
          "removed": false
        },
        {
          "address": "0x197E90f9FAD81970bA7976f33CbD77088E5D7cf7",
          "topics": [
            "0x9f678cca00000000000000000000000000000000000000000000000000000000",
            "0x00000000000000000000000083f20f44975d03b1b09e64809b757c47f942beea",
            "0x0000000000000000000000000000000000000000000000000000000000000000",
            "0x0000000000000000000000000000000000000000000000000000000000000000"
          ],
          "data": "0x000000000000000000000000000000000000000000000000000000000000002000000000000000000000000000000000000000000000000000000000000000e09f678cca00000000000000000000000000000000000000000000000000000000000000000000000000000000000000000000000000000000000000000000000000000000000000000000000000000000000000000000000000000000000000000000000000000000000000000000000000000000000000000000000000000000000000000000000000000000000000000000000000000000000000000000000000000000000000000000000000000000000000000000000000000000000000000000000000000000000000000000000000000000000000000000000000000000",
          "blockHash": "0x388e6a2689bb1591c101f62ce307a294a6ad93f65283592ad88a31537b512c1a",
          "blockNumber": "0x11ddfed",
          "transactionHash": "0x01916b47c22060b675a8167260c4a09fd0c963ca3cadb54e68cdebd963588b92",
          "transactionIndex": "0x1",
          "logIndex": "0x29",
          "transactionLogIndex": "0xa",
          "removed": false
        },
        {
          "address": "0x6B175474E89094C44Da98b954EedeAC495271d0F",
          "topics": [
            "0xddf252ad1be2c89b69c2b068fc378daa952ba7f163c4a11628f55a4df523b3ef",
            "0x000000000000000000000000840db5cc5401045dff4104827f28708954acaab8",
            "0x00000000000000000000000083f20f44975d03b1b09e64809b757c47f942beea"
          ],
          "data": "0x00000000000000000000000000000000000000000000003635c9adc5dea00000",
          "blockHash": "0x388e6a2689bb1591c101f62ce307a294a6ad93f65283592ad88a31537b512c1a",
          "blockNumber": "0x11ddfed",
          "transactionHash": "0x01916b47c22060b675a8167260c4a09fd0c963ca3cadb54e68cdebd963588b92",
          "transactionIndex": "0x1",
          "logIndex": "0x2a",
          "transactionLogIndex": "0xb",
          "removed": false
        },
        {
          "address": "0x35D1b3F3D7966A1DFe207aa4514C12a259A0492B",
          "topics": [
            "0xbb35783b00000000000000000000000000000000000000000000000000000000",
            "0x0000000000000000000000009759a6ac90977b93b58547b4a71c78317f391a28",
            "0x00000000000000000000000083f20f44975d03b1b09e64809b757c47f942beea",
            "0x000000000000000000000000af298d050e4395d69670b12b7f41000000000000"
          ],
          "data": "0x000000000000000000000000000000000000000000000000000000000000002000000000000000000000000000000000000000000000000000000000000000e0bb35783b0000000000000000000000009759a6ac90977b93b58547b4a71c78317f391a2800000000000000000000000083f20f44975d03b1b09e64809b757c47f942beea000000000000000000000000af298d050e4395d69670b12b7f4100000000000000000000000000000000000000000000000000000000000000000000000000000000000000000000000000000000000000000000000000000000000000000000000000000000000000000000000000000000000000000000000000000000000000000000000000000000000000000000000000000000000000000000",
          "blockHash": "0x388e6a2689bb1591c101f62ce307a294a6ad93f65283592ad88a31537b512c1a",
          "blockNumber": "0x11ddfed",
          "transactionHash": "0x01916b47c22060b675a8167260c4a09fd0c963ca3cadb54e68cdebd963588b92",
          "transactionIndex": "0x1",
          "logIndex": "0x2b",
          "transactionLogIndex": "0xc",
          "removed": false
        },
        {
          "address": "0x6B175474E89094C44Da98b954EedeAC495271d0F",
          "topics": [
            "0xddf252ad1be2c89b69c2b068fc378daa952ba7f163c4a11628f55a4df523b3ef",
            "0x00000000000000000000000083f20f44975d03b1b09e64809b757c47f942beea",
            "0x0000000000000000000000000000000000000000000000000000000000000000"
          ],
          "data": "0x00000000000000000000000000000000000000000000003635c9adc5dea00000",
          "blockHash": "0x388e6a2689bb1591c101f62ce307a294a6ad93f65283592ad88a31537b512c1a",
          "blockNumber": "0x11ddfed",
          "transactionHash": "0x01916b47c22060b675a8167260c4a09fd0c963ca3cadb54e68cdebd963588b92",
          "transactionIndex": "0x1",
          "logIndex": "0x2c",
          "transactionLogIndex": "0xd",
          "removed": false
        },
        {
          "address": "0x9759A6Ac90977b93B58547b4A71c78317f391A28",
          "topics": [
            "0x3b4da69f00000000000000000000000000000000000000000000000000000000",
            "0x00000000000000000000000083f20f44975d03b1b09e64809b757c47f942beea",
            "0x00000000000000000000000083f20f44975d03b1b09e64809b757c47f942beea",
            "0x00000000000000000000000000000000000000000000003635c9adc5dea00000"
          ],
          "data": "0x000000000000000000000000000000000000000000000000000000000000002000000000000000000000000000000000000000000000000000000000000000e03b4da69f00000000000000000000000083f20f44975d03b1b09e64809b757c47f942beea00000000000000000000000000000000000000000000003635c9adc5dea00000000000000000000000000000000000000000000000000000000000000000000000000000000000000000000000000000000000000000000000000000000000000000000000000000000000000000000000000000000000000000000000000000000000000000000000000000000000000000000000000000000000000000000000000000000000000000000000000000000000000000000000000000",
          "blockHash": "0x388e6a2689bb1591c101f62ce307a294a6ad93f65283592ad88a31537b512c1a",
          "blockNumber": "0x11ddfed",
          "transactionHash": "0x01916b47c22060b675a8167260c4a09fd0c963ca3cadb54e68cdebd963588b92",
          "transactionIndex": "0x1",
          "logIndex": "0x2d",
          "transactionLogIndex": "0xe",
          "removed": false
        },
        {
          "address": "0x35D1b3F3D7966A1DFe207aa4514C12a259A0492B",
          "topics": [
            "0xbb35783b00000000000000000000000000000000000000000000000000000000",
            "0x00000000000000000000000083f20f44975d03b1b09e64809b757c47f942beea",
            "0x000000000000000000000000197e90f9fad81970ba7976f33cbd77088e5d7cf7",
            "0x000000000000000000000000af298d050e4395d694140102cdd18b7e752e1df4"
          ],
          "data": "0x000000000000000000000000000000000000000000000000000000000000002000000000000000000000000000000000000000000000000000000000000000e0bb35783b00000000000000000000000083f20f44975d03b1b09e64809b757c47f942beea000000000000000000000000197e90f9fad81970ba7976f33cbd77088e5d7cf7000000000000000000000000af298d050e4395d694140102cdd18b7e752e1df400000000000000000000000000000000000000000000000000000000000000000000000000000000000000000000000000000000000000000000000000000000000000000000000000000000000000000000000000000000000000000000000000000000000000000000000000000000000000000000000000000000",
          "blockHash": "0x388e6a2689bb1591c101f62ce307a294a6ad93f65283592ad88a31537b512c1a",
          "blockNumber": "0x11ddfed",
          "transactionHash": "0x01916b47c22060b675a8167260c4a09fd0c963ca3cadb54e68cdebd963588b92",
          "transactionIndex": "0x1",
          "logIndex": "0x2e",
          "transactionLogIndex": "0xf",
          "removed": false
        },
        {
          "address": "0x197E90f9FAD81970bA7976f33CbD77088E5D7cf7",
          "topics": [
            "0x049878f300000000000000000000000000000000000000000000000000000000",
            "0x00000000000000000000000083f20f44975d03b1b09e64809b757c47f942beea",
            "0x000000000000000000000000000000000000000000000033d199680116dab702",
            "0x0000000000000000000000000000000000000000000000000000000000000000"
          ],
          "data": "0x000000000000000000000000000000000000000000000000000000000000002000000000000000000000000000000000000000000000000000000000000000e0049878f3000000000000000000000000000000000000000000000033d199680116dab7020000000000000000000000000000000000000000000000000000000000000000000000000000000000000000000000000000000000000000000000000000000000000000000000000000000000000000000000000000000000000000000000000000000000000000000000000000000000000000000000000000000000000000000000000000000000000000000000000000000000000000000000000000000000000000000000000000000000000000000000000000000000000000",
          "blockHash": "0x388e6a2689bb1591c101f62ce307a294a6ad93f65283592ad88a31537b512c1a",
          "blockNumber": "0x11ddfed",
          "transactionHash": "0x01916b47c22060b675a8167260c4a09fd0c963ca3cadb54e68cdebd963588b92",
          "transactionIndex": "0x1",
          "logIndex": "0x2f",
          "transactionLogIndex": "0x10",
          "removed": false
        },
        {
          "address": "0x83F20F44975D03b1b09e64809B757c47f942BEeA",
          "topics": [
            "0xdcbc1c05240f31ff3ad067ef1ee35ce4997762752e3a095284754544f4c709d7",
            "0x000000000000000000000000840db5cc5401045dff4104827f28708954acaab8",
            "0x000000000000000000000000840db5cc5401045dff4104827f28708954acaab8"
          ],
          "data": "0x00000000000000000000000000000000000000000000003635c9adc5dea00000000000000000000000000000000000000000000000000033d199680116dab702",
          "blockHash": "0x388e6a2689bb1591c101f62ce307a294a6ad93f65283592ad88a31537b512c1a",
          "blockNumber": "0x11ddfed",
          "transactionHash": "0x01916b47c22060b675a8167260c4a09fd0c963ca3cadb54e68cdebd963588b92",
          "transactionIndex": "0x1",
          "logIndex": "0x30",
          "transactionLogIndex": "0x11",
          "removed": false
        },
        {
          "address": "0x6B175474E89094C44Da98b954EedeAC495271d0F",
          "topics": [
            "0x8c5be1e5ebec7d5bd14f71427d1e84f3dd0314c0f7b2291e5b200ac8c7c3b925",
            "0x000000000000000000000000840db5cc5401045dff4104827f28708954acaab8",
            "0x00000000000000000000000087870bca3f3fd6335c3f4ce8392d69350b4fa4e2"
          ],
          "data": "0x00000000000000000000000000000000000000000000003635c9adc5dea00000",
          "blockHash": "0x388e6a2689bb1591c101f62ce307a294a6ad93f65283592ad88a31537b512c1a",
          "blockNumber": "0x11ddfed",
          "transactionHash": "0x01916b47c22060b675a8167260c4a09fd0c963ca3cadb54e68cdebd963588b92",
          "transactionIndex": "0x1",
          "logIndex": "0x31",
          "transactionLogIndex": "0x12",
          "removed": false
        },
        {
          "address": "0x87870Bca3F3fD6335C3F4ce8392D69350B4fA4E2",
          "topics": [
            "0x804c9b842b2748a22bb64b345453a3de7ca54a6ca45ce00d415894979e22897a",
            "0x0000000000000000000000006b175474e89094c44da98b954eedeac495271d0f"
          ],
          "data": "0x0000000000000000000000000000000000000000004e372dc05714379603bde00000000000000000000000000000000000000000006c0a5f1a621a63b8dcb4630000000000000000000000000000000000000000005fa1ff7944187749dcb463000000000000000000000000000000000000000003523c9be1af8371d5dc95660000000000000000000000000000000000000000035c32ce76ce8c514c1c9d07",
          "blockHash": "0x388e6a2689bb1591c101f62ce307a294a6ad93f65283592ad88a31537b512c1a",
          "blockNumber": "0x11ddfed",
          "transactionHash": "0x01916b47c22060b675a8167260c4a09fd0c963ca3cadb54e68cdebd963588b92",
          "transactionIndex": "0x1",
          "logIndex": "0x32",
          "transactionLogIndex": "0x13",
          "removed": false
        },
        {
          "address": "0x6B175474E89094C44Da98b954EedeAC495271d0F",
          "topics": [
            "0xddf252ad1be2c89b69c2b068fc378daa952ba7f163c4a11628f55a4df523b3ef",
            "0x000000000000000000000000840db5cc5401045dff4104827f28708954acaab8",
            "0x000000000000000000000000018008bfb33d285247a21d44e50697654f754e63"
          ],
          "data": "0x00000000000000000000000000000000000000000000003635c9adc5dea00000",
          "blockHash": "0x388e6a2689bb1591c101f62ce307a294a6ad93f65283592ad88a31537b512c1a",
          "blockNumber": "0x11ddfed",
          "transactionHash": "0x01916b47c22060b675a8167260c4a09fd0c963ca3cadb54e68cdebd963588b92",
          "transactionIndex": "0x1",
          "logIndex": "0x33",
          "transactionLogIndex": "0x14",
          "removed": false
        },
        {
          "address": "0x018008bfb33d285247A21d44E50697654f754e63",
          "topics": [
            "0xddf252ad1be2c89b69c2b068fc378daa952ba7f163c4a11628f55a4df523b3ef",
            "0x0000000000000000000000000000000000000000000000000000000000000000",
            "0x000000000000000000000000840db5cc5401045dff4104827f28708954acaab8"
          ],
          "data": "0x00000000000000000000000000000000000000000000003635c9adc5dea00000",
          "blockHash": "0x388e6a2689bb1591c101f62ce307a294a6ad93f65283592ad88a31537b512c1a",
          "blockNumber": "0x11ddfed",
          "transactionHash": "0x01916b47c22060b675a8167260c4a09fd0c963ca3cadb54e68cdebd963588b92",
          "transactionIndex": "0x1",
          "logIndex": "0x34",
          "transactionLogIndex": "0x15",
          "removed": false
        },
        {
          "address": "0x018008bfb33d285247A21d44E50697654f754e63",
          "topics": [
            "0x458f5fa412d0f69b08dd84872b0215675cc67bc1d5b6fd93300a1c3878b86196",
            "0x000000000000000000000000840db5cc5401045dff4104827f28708954acaab8",
            "0x000000000000000000000000840db5cc5401045dff4104827f28708954acaab8"
          ],
          "data": "0x00000000000000000000000000000000000000000000003635c9adc5dea000000000000000000000000000000000000000000000000000000000000000000000000000000000000000000000000000000000000003523c9be1af8371d5dc9566",
          "blockHash": "0x388e6a2689bb1591c101f62ce307a294a6ad93f65283592ad88a31537b512c1a",
          "blockNumber": "0x11ddfed",
          "transactionHash": "0x01916b47c22060b675a8167260c4a09fd0c963ca3cadb54e68cdebd963588b92",
          "transactionIndex": "0x1",
          "logIndex": "0x35",
          "transactionLogIndex": "0x16",
          "removed": false
        },
        {
          "address": "0x87870Bca3F3fD6335C3F4ce8392D69350B4fA4E2",
          "topics": [
            "0x00058a56ea94653cdf4f152d227ace22d4c00ad99e2a43f58cb7d9e3feb295f2",
            "0x0000000000000000000000006b175474e89094c44da98b954eedeac495271d0f",
            "0x000000000000000000000000840db5cc5401045dff4104827f28708954acaab8"
          ],
          "data": "0x",
          "blockHash": "0x388e6a2689bb1591c101f62ce307a294a6ad93f65283592ad88a31537b512c1a",
          "blockNumber": "0x11ddfed",
          "transactionHash": "0x01916b47c22060b675a8167260c4a09fd0c963ca3cadb54e68cdebd963588b92",
          "transactionIndex": "0x1",
          "logIndex": "0x36",
          "transactionLogIndex": "0x17",
          "removed": false
        },
        {
          "address": "0x87870Bca3F3fD6335C3F4ce8392D69350B4fA4E2",
          "topics": [
            "0x2b627736bca15cd5381dcf80b0bf11fd197d01a037c52b927a881a10fb73ba61",
            "0x0000000000000000000000006b175474e89094c44da98b954eedeac495271d0f",
            "0x000000000000000000000000840db5cc5401045dff4104827f28708954acaab8",
            "0x0000000000000000000000000000000000000000000000000000000000000000"
          ],
          "data": "0x000000000000000000000000840db5cc5401045dff4104827f28708954acaab800000000000000000000000000000000000000000000003635c9adc5dea00000",
          "blockHash": "0x388e6a2689bb1591c101f62ce307a294a6ad93f65283592ad88a31537b512c1a",
          "blockNumber": "0x11ddfed",
          "transactionHash": "0x01916b47c22060b675a8167260c4a09fd0c963ca3cadb54e68cdebd963588b92",
          "transactionIndex": "0x1",
          "logIndex": "0x37",
          "transactionLogIndex": "0x18",
          "removed": false
        },
        {
          "address": "0xeA51d7853EEFb32b6ee06b1C12E6dcCA88Be0fFE",
          "topics": [
            "0xddf252ad1be2c89b69c2b068fc378daa952ba7f163c4a11628f55a4df523b3ef",
            "0x0000000000000000000000000000000000000000000000000000000000000000",
            "0x000000000000000000000000840db5cc5401045dff4104827f28708954acaab8"
          ],
          "data": "0x000000000000000000000000000000000000000000000000016345785d8a0000",
          "blockHash": "0x388e6a2689bb1591c101f62ce307a294a6ad93f65283592ad88a31537b512c1a",
          "blockNumber": "0x11ddfed",
          "transactionHash": "0x01916b47c22060b675a8167260c4a09fd0c963ca3cadb54e68cdebd963588b92",
          "transactionIndex": "0x1",
          "logIndex": "0x38",
          "transactionLogIndex": "0x19",
          "removed": false
        },
        {
          "address": "0xeA51d7853EEFb32b6ee06b1C12E6dcCA88Be0fFE",
          "topics": [
            "0x458f5fa412d0f69b08dd84872b0215675cc67bc1d5b6fd93300a1c3878b86196",
            "0x000000000000000000000000840db5cc5401045dff4104827f28708954acaab8",
            "0x000000000000000000000000840db5cc5401045dff4104827f28708954acaab8"
          ],
          "data": "0x000000000000000000000000000000000000000000000000016345785d8a0000000000000000000000000000000000000000000000000000000000000000000000000000000000000000000000000000000000000354ccdf220ec8bdac4775e4",
          "blockHash": "0x388e6a2689bb1591c101f62ce307a294a6ad93f65283592ad88a31537b512c1a",
          "blockNumber": "0x11ddfed",
          "transactionHash": "0x01916b47c22060b675a8167260c4a09fd0c963ca3cadb54e68cdebd963588b92",
          "transactionIndex": "0x1",
          "logIndex": "0x39",
          "transactionLogIndex": "0x1a",
          "removed": false
        },
        {
          "address": "0x87870Bca3F3fD6335C3F4ce8392D69350B4fA4E2",
          "topics": [
            "0x804c9b842b2748a22bb64b345453a3de7ca54a6ca45ce00d415894979e22897a",
            "0x000000000000000000000000c02aaa39b223fe8d0a0e5c4f27ead9083c756cc2"
          ],
          "data": "0x0000000000000000000000000000000000000000000f757c414f7b4410739e6200000000000000000000000000000000000000000050c1cd157b02a0aad7904100000000000000000000000000000000000000000016f246bfa39b5a5563b1c70000000000000000000000000000000000000000034919ddf4dc30cf6f1bf53a00000000000000000000000000000000000000000354ccdf220ec8bdac4775e4",
          "blockHash": "0x388e6a2689bb1591c101f62ce307a294a6ad93f65283592ad88a31537b512c1a",
          "blockNumber": "0x11ddfed",
          "transactionHash": "0x01916b47c22060b675a8167260c4a09fd0c963ca3cadb54e68cdebd963588b92",
          "transactionIndex": "0x1",
          "logIndex": "0x3a",
          "transactionLogIndex": "0x1b",
          "removed": false
        },
        {
          "address": "0xC02aaA39b223FE8D0A0e5C4F27eAD9083C756Cc2",
          "topics": [
            "0xddf252ad1be2c89b69c2b068fc378daa952ba7f163c4a11628f55a4df523b3ef",
            "0x0000000000000000000000004d5f47fa6a74757f35c14fd3a6ef8e3c9bc514e8",
            "0x000000000000000000000000840db5cc5401045dff4104827f28708954acaab8"
          ],
          "data": "0x000000000000000000000000000000000000000000000000016345785d8a0000",
          "blockHash": "0x388e6a2689bb1591c101f62ce307a294a6ad93f65283592ad88a31537b512c1a",
          "blockNumber": "0x11ddfed",
          "transactionHash": "0x01916b47c22060b675a8167260c4a09fd0c963ca3cadb54e68cdebd963588b92",
          "transactionIndex": "0x1",
          "logIndex": "0x3b",
          "transactionLogIndex": "0x1c",
          "removed": false
        },
        {
          "address": "0x87870Bca3F3fD6335C3F4ce8392D69350B4fA4E2",
          "topics": [
            "0xb3d084820fb1a9decffb176436bd02558d15fac9b0ddfed8c465bc7359d7dce0",
            "0x000000000000000000000000c02aaa39b223fe8d0a0e5c4f27ead9083c756cc2",
            "0x000000000000000000000000840db5cc5401045dff4104827f28708954acaab8",
            "0x0000000000000000000000000000000000000000000000000000000000000000"
          ],
          "data": "0x000000000000000000000000840db5cc5401045dff4104827f28708954acaab8000000000000000000000000000000000000000000000000016345785d8a0000000000000000000000000000000000000000000000000000000000000000000200000000000000000000000000000000000000000016f246bfa39b5a5563b1c7",
          "blockHash": "0x388e6a2689bb1591c101f62ce307a294a6ad93f65283592ad88a31537b512c1a",
          "blockNumber": "0x11ddfed",
          "transactionHash": "0x01916b47c22060b675a8167260c4a09fd0c963ca3cadb54e68cdebd963588b92",
          "transactionIndex": "0x1",
          "logIndex": "0x3c",
          "transactionLogIndex": "0x1d",
          "removed": false
        },
        {
          "address": "0xd491DecCB5FD9a0d83d78E75EFD1f92d691Cf8C5",
          "topics": [
            "0xf8108fc422f1ac93974c7eae597df780954b417fff09816602695b8c8df1e5ac",
            "0x67c6a2e151d4352a55021b5d0028c18121cfc24c7d73b179d22b17daff069c6e",
            "0x000000000000000000000000840db5cc5401045dff4104827f28708954acaab8"
          ],
          "data": "0x00000000000000000000000000000000000000000000000000000000000000010000000000000000000000000000000000000000000000000000000000000040000000000000000000000000f39fd6e51aad88f6f4ce6ab8827279cfffb92266000000000000000000000000c02aaa39b223fe8d0a0e5c4f27ead9083c756cc20000000000000000000000006b175474e89094c44da98b954eedeac495271d0f000000000000000000000000000000000000000000000000016345785d8a000000000000000000000000000000000000000000000000003635c9adc5dea0000000000000000000000000000000000000000000000000000000000000000001000000000000000000000000000000000000000000000000000000000000000000000000000000000000000000000000000000000000000000000000000000000000000000000000000000000000000000000000000000000000000000000000047344414900000000000000000000000000000000000000000000000000000000",
          "blockHash": "0x388e6a2689bb1591c101f62ce307a294a6ad93f65283592ad88a31537b512c1a",
          "blockNumber": "0x11ddfed",
          "transactionHash": "0x01916b47c22060b675a8167260c4a09fd0c963ca3cadb54e68cdebd963588b92",
          "transactionIndex": "0x1",
          "logIndex": "0x3d",
          "transactionLogIndex": "0x1e",
          "removed": false
        }
      ],
      "status": "0x1",
      "logsBloom": "0x0010002000000840048100000020000010200400021000000024040000000842000010044104000000000100000405004200400008000000200000000020008000000040200000000001400800000180000800000200000428404014000000001002002802002000200282110000080000002000000481420000001200010020000000028000000000180040000004000100408000008000000000040000000802000000000100000000020000000002200000008000300000000000000001000280000204300120004040205808000000202200202c040000220040000020009010209000c00400002002040001200040010000800000100000400000000000",
      "type": "0x2",
      "effectiveGasPrice": "0xd7841d09"
    }
  ],
  "libraries": [],
  "pending": [],
  "returns": {},
  "timestamp": 1702016705,
  "chain": 1,
  "multi": false,
  "commit": "d382dea"
}