{
  "transactions": [
    {
      "hash": "0x86e5754fd81621468827d3b9d49d7686dbe2ee846ab242b8693a314377578f64",
      "transactionType": "CALL",
      "contractName": null,
      "contractAddress": "0x5f246ADDCF057E0f778CD422e20e413be70f9a0c",
      "function": null,
      "arguments": null,
      "transaction": {
        "type": "0x02",
        "from": "0xf39fd6e51aad88f6f4ce6ab8827279cfffb92266",
        "to": "0x5f246addcf057e0f778cd422e20e413be70f9a0c",
        "gas": "0x743a",
        "value": "0x0",
        "data": "0xa3f4df7e",
        "nonce": "0x29e",
        "accessList": []
      },
      "additionalContracts": [],
      "isFixedGasLimit": false
    },
    {
      "hash": "0x42da8e77052f394140b35cf35fe24a2bcb5652e43fe1a93d03c11ac246725c89",
      "transactionType": "CALL",
      "contractName": "Dai",
      "contractAddress": "0x6B175474E89094C44Da98b954EedeAC495271d0F",
      "function": "approve(address,uint256):(bool)",
      "arguments": [
        "0xd491DecCB5FD9a0d83d78E75EFD1f92d691Cf8C5",
        "1000000000000000000000"
      ],
      "transaction": {
        "type": "0x02",
        "from": "0xf39fd6e51aad88f6f4ce6ab8827279cfffb92266",
        "to": "0x6b175474e89094c44da98b954eedeac495271d0f",
        "gas": "0xf90a",
        "value": "0x0",
        "data": "0x095ea7b3000000000000000000000000d491deccb5fd9a0d83d78e75efd1f92d691cf8c500000000000000000000000000000000000000000000003635c9adc5dea00000",
        "nonce": "0x29f",
        "accessList": []
      },
      "additionalContracts": [],
      "isFixedGasLimit": false
    },
    {
      "hash": "0x20845c233b401831525cc194a89ad2da0d684190b14d3945b4f415d717d45446",
      "transactionType": "CALL",
      "contractName": null,
      "contractAddress": "0xd491DecCB5FD9a0d83d78E75EFD1f92d691Cf8C5",
      "function": null,
      "arguments": null,
      "transaction": {
        "type": "0x02",
        "from": "0xf39fd6e51aad88f6f4ce6ab8827279cfffb92266",
        "to": "0xd491deccb5fd9a0d83d78e75efd1f92d691cf8c5",
        "gas": "0x10ff9c",
        "value": "0x0",
        "data": "0xa42bf16500000000000000000000000000000000000000000000000000000000000000400000000000000000000000000000000000000000000000000000000000000180000000000000000000000000f39fd6e51aad88f6f4ce6ab8827279cfffb92266000000000000000000000000c02aaa39b223fe8d0a0e5c4f27ead9083c756cc20000000000000000000000006b175474e89094c44da98b954eedeac495271d0f000000000000000000000000000000000000000000000000016345785d8a000000000000000000000000000000000000000000000000003635c9adc5dea00000000000000000000000000000000000000000000000000000000000000000010000000000000000000000000000000000000000000000000000000000000000000000000000000000000000000000000000000000000000000000000000000000000000000000000000000000000000000000000000000000000000000000000473444149000000000000000000000000000000000000000000000000000000000000000000000000000000000000000000000000000000000000000000000380000000000000000000000000000000000000000000000000000000000000004000000000000000000000000000000000000000000000000000000000000001800000000000000000000000000000000000000000000000000000000000000003000000000000000000000000000000000000000000000000000000000000006000000000000000000000000000000000000000000000000000000000000000a000000000000000000000000000000000000000000000000000000000000000e00000000000000000000000000000000000000000000000000000000000000004734441490000000000000000000000000000000000000000000000000000000000000000000000000000000000000000000000000000000000000000000000064161766556330000000000000000000000000000000000000000000000000000000000000000000000000000000000000000000000000000000000000000000641617665563300000000000000000000000000000000000000000000000000000000000000000000000000000000000000000000000000000000000000000003000000000000000000000000000000000000000000000000000000000000006000000000000000000000000000000000000000000000000000000000000000c000000000000000000000000000000000000000000000000000000000000001400000000000000000000000000000000000000000000000000000000000000024b6b55f2500000000000000000000000000000000000000000000003635c9adc5dea0000000000000000000000000000000000000000000000000000000000000000000000000000000000000000000000000000000000000000000000000004447e7ef240000000000000000000000006b175474e89094c44da98b954eedeac495271d0f00000000000000000000000000000000000000000000003635c9adc5dea00000000000000000000000000000000000000000000000000000000000000000000000000000000000000000000000000000000000000000000000000064c1bce0b7000000000000000000000000c02aaa39b223fe8d0a0e5c4f27ead9083c756cc2000000000000000000000000000000000000000000000000016345785d8a0000000000000000000000000000000000000000000000000000000000000000000200000000000000000000000000000000000000000000000000000000",
        "nonce": "0x2a0",
        "accessList": []
      },
      "additionalContracts": [],
      "isFixedGasLimit": false
    }
  ],
  "receipts": [
    {
      "transactionHash": "0x86e5754fd81621468827d3b9d49d7686dbe2ee846ab242b8693a314377578f64",
      "transactionIndex": "0x0",
      "blockHash": "0x37fde79320014cbad05d699053ec4ba877807e8f285f63069d44f1906e895ce4",
      "blockNumber": "0x11ddfee",
      "from": "0xf39Fd6e51aad88F6F4ce6aB8827279cffFb92266",
      "to": "0x5f246ADDCF057E0f778CD422e20e413be70f9a0c",
      "cumulativeGasUsed": "0x5426",
      "gasUsed": "0x5426",
      "contractAddress": null,
      "logs": [],
      "status": "0x1",
      "logsBloom": "0x00000000000000000000000000000000000000000000000000000000000000000000000000000000000000000000000000000000000000000000000000000000000000000000000000000000000000000000000000000000000000000000000000000000000000000000000000000000000000000000000000000000000000000000000000000000000000000000000000000000000000000000000000000000000000000000000000000000000000000000000000000000000000000000000000000000000000000000000000000000000000000000000000000000000000000000000000000000000000000000000000000000000000000000000000000000",
      "type": "0x2",
      "effectiveGasPrice": "0xd345255c"
    },
    {
      "transactionHash": "0x42da8e77052f394140b35cf35fe24a2bcb5652e43fe1a93d03c11ac246725c89",
      "transactionIndex": "0x0",
      "blockHash": "0x4b1a78ed0ddde25284272f8b2462419547016e006bdd6e69ac93aa9f104cffa4",
      "blockNumber": "0x11ddfef",
      "from": "0xf39Fd6e51aad88F6F4ce6aB8827279cffFb92266",
      "to": "0x6B175474E89094C44Da98b954EedeAC495271d0F",
      "cumulativeGasUsed": "0xb44e",
      "gasUsed": "0xb44e",
      "contractAddress": null,
      "logs": [
        {
          "address": "0x6B175474E89094C44Da98b954EedeAC495271d0F",
          "topics": [
            "0x8c5be1e5ebec7d5bd14f71427d1e84f3dd0314c0f7b2291e5b200ac8c7c3b925",
            "0x000000000000000000000000f39fd6e51aad88f6f4ce6ab8827279cfffb92266",
            "0x000000000000000000000000d491deccb5fd9a0d83d78e75efd1f92d691cf8c5"
          ],
          "data": "0x00000000000000000000000000000000000000000000003635c9adc5dea00000",
          "blockHash": "0x4b1a78ed0ddde25284272f8b2462419547016e006bdd6e69ac93aa9f104cffa4",
          "blockNumber": "0x11ddfef",
          "transactionHash": "0x42da8e77052f394140b35cf35fe24a2bcb5652e43fe1a93d03c11ac246725c89",
          "transactionIndex": "0x0",
          "logIndex": "0x0",
          "transactionLogIndex": "0x0",
          "removed": false
        }
      ],
      "status": "0x1",
      "logsBloom": "0x00000000000000000400000000000000000000000200000000000000000000000000000000000000000000000000000000000000000000000000000000200000000000000000000000000008000000000000000000000000000000000000000010000000000000000000000100000000000000000000000000000000000000000000000000000000000000000000000000000000000000000000000000000000020000000000000000000000000000000000000000000000000000000000000000000000000000200000000000000000000002002000000000000000000000000010001000000000000000000000000000000000000000000000000000000000",
      "type": "0x2",
      "effectiveGasPrice": "0xcf380a48"
    },
    {
      "transactionHash": "0x20845c233b401831525cc194a89ad2da0d684190b14d3945b4f415d717d45446",
      "transactionIndex": "0x0",
      "blockHash": "0x994cfc031b713ca778a2c8b9c78f14c062cd18191635cf1a5e90168dfb35c06a",
      "blockNumber": "0x11ddff0",
      "from": "0xf39Fd6e51aad88F6F4ce6aB8827279cffFb92266",
      "to": "0xd491DecCB5FD9a0d83d78E75EFD1f92d691Cf8C5",
      "cumulativeGasUsed": "0xd36f5",
      "gasUsed": "0xd36f5",
      "contractAddress": null,
      "logs": [
        {
          "address": "0x6B175474E89094C44Da98b954EedeAC495271d0F",
          "topics": [
            "0xddf252ad1be2c89b69c2b068fc378daa952ba7f163c4a11628f55a4df523b3ef",
            "0x000000000000000000000000f39fd6e51aad88f6f4ce6ab8827279cfffb92266",
            "0x000000000000000000000000d491deccb5fd9a0d83d78e75efd1f92d691cf8c5"
          ],
          "data": "0x00000000000000000000000000000000000000000000003635c9adc5dea00000",
          "blockHash": "0x994cfc031b713ca778a2c8b9c78f14c062cd18191635cf1a5e90168dfb35c06a",
          "blockNumber": "0x11ddff0",
          "transactionHash": "0x20845c233b401831525cc194a89ad2da0d684190b14d3945b4f415d717d45446",
          "transactionIndex": "0x0",
          "logIndex": "0x0",
          "transactionLogIndex": "0x0",
          "removed": false
        },
        {
          "address": "0x6B175474E89094C44Da98b954EedeAC495271d0F",
          "topics": [
            "0x8c5be1e5ebec7d5bd14f71427d1e84f3dd0314c0f7b2291e5b200ac8c7c3b925",
            "0x000000000000000000000000d491deccb5fd9a0d83d78e75efd1f92d691cf8c5",
            "0x000000000000000000000000840db5cc5401045dff4104827f28708954acaab8"
          ],
          "data": "0x00000000000000000000000000000000000000000000006c6b935b8bbd400000",
          "blockHash": "0x994cfc031b713ca778a2c8b9c78f14c062cd18191635cf1a5e90168dfb35c06a",
          "blockNumber": "0x11ddff0",
          "transactionHash": "0x20845c233b401831525cc194a89ad2da0d684190b14d3945b4f415d717d45446",
          "transactionIndex": "0x0",
          "logIndex": "0x1",
          "transactionLogIndex": "0x1",
          "removed": false
        },
        {
          "address": "0x3C2BafebbB0c8c58f39A976e725cD20D611d01e9",
          "topics": [
            "0xddf252ad1be2c89b69c2b068fc378daa952ba7f163c4a11628f55a4df523b3ef",
            "0x000000000000000000000000d491deccb5fd9a0d83d78e75efd1f92d691cf8c5",
            "0x0000000000000000000000000000000000000000000000000000000000000000"
          ],
          "data": "0x00000000000000000000000000000000000000000000003635c9adc5dea00000",
          "blockHash": "0x994cfc031b713ca778a2c8b9c78f14c062cd18191635cf1a5e90168dfb35c06a",
          "blockNumber": "0x11ddff0",
          "transactionHash": "0x20845c233b401831525cc194a89ad2da0d684190b14d3945b4f415d717d45446",
          "transactionIndex": "0x0",
          "logIndex": "0x2",
          "transactionLogIndex": "0x2",
          "removed": false
        },
        {
          "address": "0x6B175474E89094C44Da98b954EedeAC495271d0F",
          "topics": [
            "0xddf252ad1be2c89b69c2b068fc378daa952ba7f163c4a11628f55a4df523b3ef",
            "0x0000000000000000000000003c2bafebbb0c8c58f39a976e725cd20d611d01e9",
            "0x000000000000000000000000d491deccb5fd9a0d83d78e75efd1f92d691cf8c5"
          ],
          "data": "0x00000000000000000000000000000000000000000000003635c9adc5dea00000",
          "blockHash": "0x994cfc031b713ca778a2c8b9c78f14c062cd18191635cf1a5e90168dfb35c06a",
          "blockNumber": "0x11ddff0",
          "transactionHash": "0x20845c233b401831525cc194a89ad2da0d684190b14d3945b4f415d717d45446",
          "transactionIndex": "0x0",
          "logIndex": "0x3",
          "transactionLogIndex": "0x3",
          "removed": false
        },
        {
          "address": "0x3C2BafebbB0c8c58f39A976e725cD20D611d01e9",
          "topics": [
            "0xfbde797d201c681b91056529119e0b02407c7bb96a4a2c75c01fc9667232c8db",
            "0x000000000000000000000000d491deccb5fd9a0d83d78e75efd1f92d691cf8c5",
            "0x000000000000000000000000d491deccb5fd9a0d83d78e75efd1f92d691cf8c5",
            "0x000000000000000000000000d491deccb5fd9a0d83d78e75efd1f92d691cf8c5"
          ],
          "data": "0x00000000000000000000000000000000000000000000003635c9adc5dea0000000000000000000000000000000000000000000000000003635c9adc5dea00000",
          "blockHash": "0x994cfc031b713ca778a2c8b9c78f14c062cd18191635cf1a5e90168dfb35c06a",
          "blockNumber": "0x11ddff0",
          "transactionHash": "0x20845c233b401831525cc194a89ad2da0d684190b14d3945b4f415d717d45446",
          "transactionIndex": "0x0",
          "logIndex": "0x4",
          "transactionLogIndex": "0x4",
          "removed": false
        },
        {
          "address": "0x6B175474E89094C44Da98b954EedeAC495271d0F",
          "topics": [
            "0xddf252ad1be2c89b69c2b068fc378daa952ba7f163c4a11628f55a4df523b3ef",
            "0x000000000000000000000000d491deccb5fd9a0d83d78e75efd1f92d691cf8c5",
            "0x000000000000000000000000840db5cc5401045dff4104827f28708954acaab8"
          ],
          "data": "0x00000000000000000000000000000000000000000000006c6b935b8bbd400000",
          "blockHash": "0x994cfc031b713ca778a2c8b9c78f14c062cd18191635cf1a5e90168dfb35c06a",
          "blockNumber": "0x11ddff0",
          "transactionHash": "0x20845c233b401831525cc194a89ad2da0d684190b14d3945b4f415d717d45446",
          "transactionIndex": "0x0",
          "logIndex": "0x5",
          "transactionLogIndex": "0x5",
          "removed": false
        },
        {
          "address": "0x6B175474E89094C44Da98b954EedeAC495271d0F",
          "topics": [
            "0x8c5be1e5ebec7d5bd14f71427d1e84f3dd0314c0f7b2291e5b200ac8c7c3b925",
            "0x000000000000000000000000840db5cc5401045dff4104827f28708954acaab8",
            "0x00000000000000000000000083f20f44975d03b1b09e64809b757c47f942beea"
          ],
          "data": "0x00000000000000000000000000000000000000000000003635c9adc5dea00000",
          "blockHash": "0x994cfc031b713ca778a2c8b9c78f14c062cd18191635cf1a5e90168dfb35c06a",
          "blockNumber": "0x11ddff0",
          "transactionHash": "0x20845c233b401831525cc194a89ad2da0d684190b14d3945b4f415d717d45446",
          "transactionIndex": "0x0",
          "logIndex": "0x6",
          "transactionLogIndex": "0x6",
          "removed": false
        },
        {
          "address": "0x35D1b3F3D7966A1DFe207aa4514C12a259A0492B",
          "topics": [
            "0xf24e23eb00000000000000000000000000000000000000000000000000000000",
            "0x000000000000000000000000a950524441892a31ebddf91d3ceefa04bf454466",
            "0x000000000000000000000000197e90f9fad81970ba7976f33cbd77088e5d7cf7",
            "0x000000000000000000000002164d01614884beb68ad96ab78507adeec9c18ad8"
          ],
          "data": "0x000000000000000000000000000000000000000000000000000000000000002000000000000000000000000000000000000000000000000000000000000000e0f24e23eb000000000000000000000000a950524441892a31ebddf91d3ceefa04bf454466000000000000000000000000197e90f9fad81970ba7976f33cbd77088e5d7cf7000000000000000000000002164d01614884beb68ad96ab78507adeec9c18ad800000000000000000000000000000000000000000000000000000000000000000000000000000000000000000000000000000000000000000000000000000000000000000000000000000000000000000000000000000000000000000000000000000000000000000000000000000000000000000000000000000000",
          "blockHash": "0x994cfc031b713ca778a2c8b9c78f14c062cd18191635cf1a5e90168dfb35c06a",
          "blockNumber": "0x11ddff0",
          "transactionHash": "0x20845c233b401831525cc194a89ad2da0d684190b14d3945b4f415d717d45446",
          "transactionIndex": "0x0",
          "logIndex": "0x7",
          "transactionLogIndex": "0x7",
          "removed": false
        },
        {
          "address": "0x197E90f9FAD81970bA7976f33CbD77088E5D7cf7",
          "topics": [
            "0x9f678cca00000000000000000000000000000000000000000000000000000000",
            "0x00000000000000000000000083f20f44975d03b1b09e64809b757c47f942beea",
            "0x0000000000000000000000000000000000000000000000000000000000000000",
            "0x0000000000000000000000000000000000000000000000000000000000000000"
          ],
          "data": "0x000000000000000000000000000000000000000000000000000000000000002000000000000000000000000000000000000000000000000000000000000000e09f678cca00000000000000000000000000000000000000000000000000000000000000000000000000000000000000000000000000000000000000000000000000000000000000000000000000000000000000000000000000000000000000000000000000000000000000000000000000000000000000000000000000000000000000000000000000000000000000000000000000000000000000000000000000000000000000000000000000000000000000000000000000000000000000000000000000000000000000000000000000000000000000000000000000000000",
          "blockHash": "0x994cfc031b713ca778a2c8b9c78f14c062cd18191635cf1a5e90168dfb35c06a",
          "blockNumber": "0x11ddff0",
          "transactionHash": "0x20845c233b401831525cc194a89ad2da0d684190b14d3945b4f415d717d45446",
          "transactionIndex": "0x0",
          "logIndex": "0x8",
          "transactionLogIndex": "0x8",
          "removed": false
        },
        {
          "address": "0x6B175474E89094C44Da98b954EedeAC495271d0F",
          "topics": [
            "0xddf252ad1be2c89b69c2b068fc378daa952ba7f163c4a11628f55a4df523b3ef",
            "0x000000000000000000000000840db5cc5401045dff4104827f28708954acaab8",
            "0x00000000000000000000000083f20f44975d03b1b09e64809b757c47f942beea"
          ],
          "data": "0x00000000000000000000000000000000000000000000003635c9adc5dea00000",
          "blockHash": "0x994cfc031b713ca778a2c8b9c78f14c062cd18191635cf1a5e90168dfb35c06a",
          "blockNumber": "0x11ddff0",
          "transactionHash": "0x20845c233b401831525cc194a89ad2da0d684190b14d3945b4f415d717d45446",
          "transactionIndex": "0x0",
          "logIndex": "0x9",
          "transactionLogIndex": "0x9",
          "removed": false
        },
        {
          "address": "0x35D1b3F3D7966A1DFe207aa4514C12a259A0492B",
          "topics": [
            "0xbb35783b00000000000000000000000000000000000000000000000000000000",
            "0x0000000000000000000000009759a6ac90977b93b58547b4a71c78317f391a28",
            "0x00000000000000000000000083f20f44975d03b1b09e64809b757c47f942beea",
            "0x000000000000000000000000af298d050e4395d69670b12b7f41000000000000"
          ],
          "data": "0x000000000000000000000000000000000000000000000000000000000000002000000000000000000000000000000000000000000000000000000000000000e0bb35783b0000000000000000000000009759a6ac90977b93b58547b4a71c78317f391a2800000000000000000000000083f20f44975d03b1b09e64809b757c47f942beea000000000000000000000000af298d050e4395d69670b12b7f4100000000000000000000000000000000000000000000000000000000000000000000000000000000000000000000000000000000000000000000000000000000000000000000000000000000000000000000000000000000000000000000000000000000000000000000000000000000000000000000000000000000000000000000",
          "blockHash": "0x994cfc031b713ca778a2c8b9c78f14c062cd18191635cf1a5e90168dfb35c06a",
          "blockNumber": "0x11ddff0",
          "transactionHash": "0x20845c233b401831525cc194a89ad2da0d684190b14d3945b4f415d717d45446",
          "transactionIndex": "0x0",
          "logIndex": "0xa",
          "transactionLogIndex": "0xa",
          "removed": false
        },
        {
          "address": "0x6B175474E89094C44Da98b954EedeAC495271d0F",
          "topics": [
            "0xddf252ad1be2c89b69c2b068fc378daa952ba7f163c4a11628f55a4df523b3ef",
            "0x00000000000000000000000083f20f44975d03b1b09e64809b757c47f942beea",
            "0x0000000000000000000000000000000000000000000000000000000000000000"
          ],
          "data": "0x00000000000000000000000000000000000000000000003635c9adc5dea00000",
          "blockHash": "0x994cfc031b713ca778a2c8b9c78f14c062cd18191635cf1a5e90168dfb35c06a",
          "blockNumber": "0x11ddff0",
          "transactionHash": "0x20845c233b401831525cc194a89ad2da0d684190b14d3945b4f415d717d45446",
          "transactionIndex": "0x0",
          "logIndex": "0xb",
          "transactionLogIndex": "0xb",
          "removed": false
        },
        {
          "address": "0x9759A6Ac90977b93B58547b4A71c78317f391A28",
          "topics": [
            "0x3b4da69f00000000000000000000000000000000000000000000000000000000",
            "0x00000000000000000000000083f20f44975d03b1b09e64809b757c47f942beea",
            "0x00000000000000000000000083f20f44975d03b1b09e64809b757c47f942beea",
            "0x00000000000000000000000000000000000000000000003635c9adc5dea00000"
          ],
          "data": "0x000000000000000000000000000000000000000000000000000000000000002000000000000000000000000000000000000000000000000000000000000000e03b4da69f00000000000000000000000083f20f44975d03b1b09e64809b757c47f942beea00000000000000000000000000000000000000000000003635c9adc5dea00000000000000000000000000000000000000000000000000000000000000000000000000000000000000000000000000000000000000000000000000000000000000000000000000000000000000000000000000000000000000000000000000000000000000000000000000000000000000000000000000000000000000000000000000000000000000000000000000000000000000000000000000000",
          "blockHash": "0x994cfc031b713ca778a2c8b9c78f14c062cd18191635cf1a5e90168dfb35c06a",
          "blockNumber": "0x11ddff0",
          "transactionHash": "0x20845c233b401831525cc194a89ad2da0d684190b14d3945b4f415d717d45446",
          "transactionIndex": "0x0",
          "logIndex": "0xc",
          "transactionLogIndex": "0xc",
          "removed": false
        },
        {
          "address": "0x35D1b3F3D7966A1DFe207aa4514C12a259A0492B",
          "topics": [
            "0xbb35783b00000000000000000000000000000000000000000000000000000000",
            "0x00000000000000000000000083f20f44975d03b1b09e64809b757c47f942beea",
            "0x000000000000000000000000197e90f9fad81970ba7976f33cbd77088e5d7cf7",
            "0x000000000000000000000000af298d050e4395d695b77d1829b4d5be504e5fd8"
          ],
          "data": "0x000000000000000000000000000000000000000000000000000000000000002000000000000000000000000000000000000000000000000000000000000000e0bb35783b00000000000000000000000083f20f44975d03b1b09e64809b757c47f942beea000000000000000000000000197e90f9fad81970ba7976f33cbd77088e5d7cf7000000000000000000000000af298d050e4395d695b77d1829b4d5be504e5fd800000000000000000000000000000000000000000000000000000000000000000000000000000000000000000000000000000000000000000000000000000000000000000000000000000000000000000000000000000000000000000000000000000000000000000000000000000000000000000000000000000000",
          "blockHash": "0x994cfc031b713ca778a2c8b9c78f14c062cd18191635cf1a5e90168dfb35c06a",
          "blockNumber": "0x11ddff0",
          "transactionHash": "0x20845c233b401831525cc194a89ad2da0d684190b14d3945b4f415d717d45446",
          "transactionIndex": "0x0",
          "logIndex": "0xd",
          "transactionLogIndex": "0xd",
          "removed": false
        },
        {
          "address": "0x197E90f9FAD81970bA7976f33CbD77088E5D7cf7",
          "topics": [
            "0x049878f300000000000000000000000000000000000000000000000000000000",
            "0x00000000000000000000000083f20f44975d03b1b09e64809b757c47f942beea",
            "0x000000000000000000000000000000000000000000000033d1931ca86e637a24",
            "0x0000000000000000000000000000000000000000000000000000000000000000"
          ],
          "data": "0x000000000000000000000000000000000000000000000000000000000000002000000000000000000000000000000000000000000000000000000000000000e0049878f3000000000000000000000000000000000000000000000033d1931ca86e637a240000000000000000000000000000000000000000000000000000000000000000000000000000000000000000000000000000000000000000000000000000000000000000000000000000000000000000000000000000000000000000000000000000000000000000000000000000000000000000000000000000000000000000000000000000000000000000000000000000000000000000000000000000000000000000000000000000000000000000000000000000000000000000",
          "blockHash": "0x994cfc031b713ca778a2c8b9c78f14c062cd18191635cf1a5e90168dfb35c06a",
          "blockNumber": "0x11ddff0",
          "transactionHash": "0x20845c233b401831525cc194a89ad2da0d684190b14d3945b4f415d717d45446",
          "transactionIndex": "0x0",
          "logIndex": "0xe",
          "transactionLogIndex": "0xe",
          "removed": false
        },
        {
          "address": "0x83F20F44975D03b1b09e64809B757c47f942BEeA",
          "topics": [
            "0xdcbc1c05240f31ff3ad067ef1ee35ce4997762752e3a095284754544f4c709d7",
            "0x000000000000000000000000840db5cc5401045dff4104827f28708954acaab8",
            "0x000000000000000000000000840db5cc5401045dff4104827f28708954acaab8"
          ],
          "data": "0x00000000000000000000000000000000000000000000003635c9adc5dea00000000000000000000000000000000000000000000000000033d1931ca86e637a24",
          "blockHash": "0x994cfc031b713ca778a2c8b9c78f14c062cd18191635cf1a5e90168dfb35c06a",
          "blockNumber": "0x11ddff0",
          "transactionHash": "0x20845c233b401831525cc194a89ad2da0d684190b14d3945b4f415d717d45446",
          "transactionIndex": "0x0",
          "logIndex": "0xf",
          "transactionLogIndex": "0xf",
          "removed": false
        },
        {
          "address": "0x6B175474E89094C44Da98b954EedeAC495271d0F",
          "topics": [
            "0x8c5be1e5ebec7d5bd14f71427d1e84f3dd0314c0f7b2291e5b200ac8c7c3b925",
            "0x000000000000000000000000840db5cc5401045dff4104827f28708954acaab8",
            "0x00000000000000000000000087870bca3f3fd6335c3f4ce8392d69350b4fa4e2"
          ],
          "data": "0x00000000000000000000000000000000000000000000003635c9adc5dea00000",
          "blockHash": "0x994cfc031b713ca778a2c8b9c78f14c062cd18191635cf1a5e90168dfb35c06a",
          "blockNumber": "0x11ddff0",
          "transactionHash": "0x20845c233b401831525cc194a89ad2da0d684190b14d3945b4f415d717d45446",
          "transactionIndex": "0x0",
          "logIndex": "0x10",
          "transactionLogIndex": "0x10",
          "removed": false
        },
        {
          "address": "0x87870Bca3F3fD6335C3F4ce8392D69350B4fA4E2",
          "topics": [
            "0x804c9b842b2748a22bb64b345453a3de7ca54a6ca45ce00d415894979e22897a",
            "0x0000000000000000000000006b175474e89094c44da98b954eedeac495271d0f"
          ],
          "data": "0x0000000000000000000000000000000000000000004e294c1cedc0c16f95f36a0000000000000000000000000000000000000000006bf9ae8e51832e5413e7720000000000000000000000000000000000000000005f914eed338141e513e772000000000000000000000000000000000000000003523d6408ed5c72a909f2ab0000000000000000000000000000000000000000035c33c60e506b1580222f72",
          "blockHash": "0x994cfc031b713ca778a2c8b9c78f14c062cd18191635cf1a5e90168dfb35c06a",
          "blockNumber": "0x11ddff0",
          "transactionHash": "0x20845c233b401831525cc194a89ad2da0d684190b14d3945b4f415d717d45446",
          "transactionIndex": "0x0",
          "logIndex": "0x11",
          "transactionLogIndex": "0x11",
          "removed": false
        },
        {
          "address": "0x6B175474E89094C44Da98b954EedeAC495271d0F",
          "topics": [
            "0xddf252ad1be2c89b69c2b068fc378daa952ba7f163c4a11628f55a4df523b3ef",
            "0x000000000000000000000000840db5cc5401045dff4104827f28708954acaab8",
            "0x000000000000000000000000018008bfb33d285247a21d44e50697654f754e63"
          ],
          "data": "0x00000000000000000000000000000000000000000000003635c9adc5dea00000",
          "blockHash": "0x994cfc031b713ca778a2c8b9c78f14c062cd18191635cf1a5e90168dfb35c06a",
          "blockNumber": "0x11ddff0",
          "transactionHash": "0x20845c233b401831525cc194a89ad2da0d684190b14d3945b4f415d717d45446",
          "transactionIndex": "0x0",
          "logIndex": "0x12",
          "transactionLogIndex": "0x12",
          "removed": false
        },
        {
          "address": "0x018008bfb33d285247A21d44E50697654f754e63",
          "topics": [
            "0xddf252ad1be2c89b69c2b068fc378daa952ba7f163c4a11628f55a4df523b3ef",
            "0x0000000000000000000000000000000000000000000000000000000000000000",
            "0x000000000000000000000000840db5cc5401045dff4104827f28708954acaab8"
          ],
          "data": "0x00000000000000000000000000000000000000000000003635d670ba3db40aa0",
          "blockHash": "0x994cfc031b713ca778a2c8b9c78f14c062cd18191635cf1a5e90168dfb35c06a",
          "blockNumber": "0x11ddff0",
          "transactionHash": "0x20845c233b401831525cc194a89ad2da0d684190b14d3945b4f415d717d45446",
          "transactionIndex": "0x0",
          "logIndex": "0x13",
          "transactionLogIndex": "0x13",
          "removed": false
        },
        {
          "address": "0x018008bfb33d285247A21d44E50697654f754e63",
          "topics": [
            "0x458f5fa412d0f69b08dd84872b0215675cc67bc1d5b6fd93300a1c3878b86196",
            "0x000000000000000000000000840db5cc5401045dff4104827f28708954acaab8",
            "0x000000000000000000000000840db5cc5401045dff4104827f28708954acaab8"
          ],
          "data": "0x00000000000000000000000000000000000000000000003635d670ba3db40aa0000000000000000000000000000000000000000000000000000cc2f45f140aa0000000000000000000000000000000000000000003523d6408ed5c72a909f2ab",
          "blockHash": "0x994cfc031b713ca778a2c8b9c78f14c062cd18191635cf1a5e90168dfb35c06a",
          "blockNumber": "0x11ddff0",
          "transactionHash": "0x20845c233b401831525cc194a89ad2da0d684190b14d3945b4f415d717d45446",
          "transactionIndex": "0x0",
          "logIndex": "0x14",
          "transactionLogIndex": "0x14",
          "removed": false
        },
        {
          "address": "0x87870Bca3F3fD6335C3F4ce8392D69350B4fA4E2",
          "topics": [
            "0x2b627736bca15cd5381dcf80b0bf11fd197d01a037c52b927a881a10fb73ba61",
            "0x0000000000000000000000006b175474e89094c44da98b954eedeac495271d0f",
            "0x000000000000000000000000840db5cc5401045dff4104827f28708954acaab8",
            "0x0000000000000000000000000000000000000000000000000000000000000000"
          ],
          "data": "0x000000000000000000000000840db5cc5401045dff4104827f28708954acaab800000000000000000000000000000000000000000000003635c9adc5dea00000",
          "blockHash": "0x994cfc031b713ca778a2c8b9c78f14c062cd18191635cf1a5e90168dfb35c06a",
          "blockNumber": "0x11ddff0",
          "transactionHash": "0x20845c233b401831525cc194a89ad2da0d684190b14d3945b4f415d717d45446",
          "transactionIndex": "0x0",
          "logIndex": "0x15",
          "transactionLogIndex": "0x15",
          "removed": false
        },
        {
          "address": "0xeA51d7853EEFb32b6ee06b1C12E6dcCA88Be0fFE",
          "topics": [
            "0xddf252ad1be2c89b69c2b068fc378daa952ba7f163c4a11628f55a4df523b3ef",
            "0x0000000000000000000000000000000000000000000000000000000000000000",
            "0x000000000000000000000000840db5cc5401045dff4104827f28708954acaab8"
          ],
          "data": "0x00000000000000000000000000000000000000000000000001634590e6c48bdd",
          "blockHash": "0x994cfc031b713ca778a2c8b9c78f14c062cd18191635cf1a5e90168dfb35c06a",
          "blockNumber": "0x11ddff0",
          "transactionHash": "0x20845c233b401831525cc194a89ad2da0d684190b14d3945b4f415d717d45446",
          "transactionIndex": "0x0",
          "logIndex": "0x16",
          "transactionLogIndex": "0x16",
          "removed": false
        },
        {
          "address": "0xeA51d7853EEFb32b6ee06b1C12E6dcCA88Be0fFE",
          "topics": [
            "0x458f5fa412d0f69b08dd84872b0215675cc67bc1d5b6fd93300a1c3878b86196",
            "0x000000000000000000000000840db5cc5401045dff4104827f28708954acaab8",
            "0x000000000000000000000000840db5cc5401045dff4104827f28708954acaab8"
          ],
          "data": "0x00000000000000000000000000000000000000000000000001634590e6c48bdd00000000000000000000000000000000000000000000000000000018893a8bdd00000000000000000000000000000000000000000354cd1a07a411fa194b18d3",
          "blockHash": "0x994cfc031b713ca778a2c8b9c78f14c062cd18191635cf1a5e90168dfb35c06a",
          "blockNumber": "0x11ddff0",
          "transactionHash": "0x20845c233b401831525cc194a89ad2da0d684190b14d3945b4f415d717d45446",
          "transactionIndex": "0x0",
          "logIndex": "0x17",
          "transactionLogIndex": "0x17",
          "removed": false
        },
        {
          "address": "0x87870Bca3F3fD6335C3F4ce8392D69350B4fA4E2",
          "topics": [
            "0x804c9b842b2748a22bb64b345453a3de7ca54a6ca45ce00d415894979e22897a",
            "0x000000000000000000000000c02aaa39b223fe8d0a0e5c4f27ead9083c756cc2"
          ],
          "data": "0x0000000000000000000000000000000000000000000f757d482dafbb498a51e100000000000000000000000000000000000000000050c1ce2c2f7744e03b1e9600000000000000000000000000000000000000000016f24782bb869a145c9569000000000000000000000000000000000000000003491a05173c31fd6794e4e400000000000000000000000000000000000000000354cd1a07a411fa194b18d3",
          "blockHash": "0x994cfc031b713ca778a2c8b9c78f14c062cd18191635cf1a5e90168dfb35c06a",
          "blockNumber": "0x11ddff0",
          "transactionHash": "0x20845c233b401831525cc194a89ad2da0d684190b14d3945b4f415d717d45446",
          "transactionIndex": "0x0",
          "logIndex": "0x18",
          "transactionLogIndex": "0x18",
          "removed": false
        },
        {
          "address": "0xC02aaA39b223FE8D0A0e5C4F27eAD9083C756Cc2",
          "topics": [
            "0xddf252ad1be2c89b69c2b068fc378daa952ba7f163c4a11628f55a4df523b3ef",
            "0x0000000000000000000000004d5f47fa6a74757f35c14fd3a6ef8e3c9bc514e8",
            "0x000000000000000000000000840db5cc5401045dff4104827f28708954acaab8"
          ],
          "data": "0x000000000000000000000000000000000000000000000000016345785d8a0000",
          "blockHash": "0x994cfc031b713ca778a2c8b9c78f14c062cd18191635cf1a5e90168dfb35c06a",
          "blockNumber": "0x11ddff0",
          "transactionHash": "0x20845c233b401831525cc194a89ad2da0d684190b14d3945b4f415d717d45446",
          "transactionIndex": "0x0",
          "logIndex": "0x19",
          "transactionLogIndex": "0x19",
          "removed": false
        },
        {
          "address": "0x87870Bca3F3fD6335C3F4ce8392D69350B4fA4E2",
          "topics": [
            "0xb3d084820fb1a9decffb176436bd02558d15fac9b0ddfed8c465bc7359d7dce0",
            "0x000000000000000000000000c02aaa39b223fe8d0a0e5c4f27ead9083c756cc2",
            "0x000000000000000000000000840db5cc5401045dff4104827f28708954acaab8",
            "0x0000000000000000000000000000000000000000000000000000000000000000"
          ],
          "data": "0x000000000000000000000000840db5cc5401045dff4104827f28708954acaab8000000000000000000000000000000000000000000000000016345785d8a0000000000000000000000000000000000000000000000000000000000000000000200000000000000000000000000000000000000000016f24782bb869a145c9569",
          "blockHash": "0x994cfc031b713ca778a2c8b9c78f14c062cd18191635cf1a5e90168dfb35c06a",
          "blockNumber": "0x11ddff0",
          "transactionHash": "0x20845c233b401831525cc194a89ad2da0d684190b14d3945b4f415d717d45446",
          "transactionIndex": "0x0",
          "logIndex": "0x1a",
          "transactionLogIndex": "0x1a",
          "removed": false
        },
        {
          "address": "0xd491DecCB5FD9a0d83d78E75EFD1f92d691Cf8C5",
          "topics": [
            "0xf8108fc422f1ac93974c7eae597df780954b417fff09816602695b8c8df1e5ac",
            "0xf23ba99f1ec426341536c572dc91ecc790ff86f74ea7aa03df4846a680dd4e73",
            "0x000000000000000000000000840db5cc5401045dff4104827f28708954acaab8"
          ],
          "data": "0x00000000000000000000000000000000000000000000000000000000000000020000000000000000000000000000000000000000000000000000000000000040000000000000000000000000f39fd6e51aad88f6f4ce6ab8827279cfffb92266000000000000000000000000c02aaa39b223fe8d0a0e5c4f27ead9083c756cc20000000000000000000000006b175474e89094c44da98b954eedeac495271d0f000000000000000000000000000000000000000000000000016345785d8a000000000000000000000000000000000000000000000000003635c9adc5dea0000000000000000000000000000000000000000000000000000000000000000001000000000000000000000000000000000000000000000000000000000000000000000000000000000000000000000000000000000000000000000000000000000000000000000000000000000000000000000000000000000000000000000000047344414900000000000000000000000000000000000000000000000000000000",
          "blockHash": "0x994cfc031b713ca778a2c8b9c78f14c062cd18191635cf1a5e90168dfb35c06a",
          "blockNumber": "0x11ddff0",
          "transactionHash": "0x20845c233b401831525cc194a89ad2da0d684190b14d3945b4f415d717d45446",
          "transactionIndex": "0x0",
          "logIndex": "0x1b",
          "transactionLogIndex": "0x1b",
          "removed": false
        }
      ],
      "status": "0x1",
      "logsBloom": "0x0010002000000040040100020020000010200010021100800080040000000842000010044300000000000100000405004200408008000000200000000020008000000040000000000001400800000080000800100200000428404014000000001002002802002000200082110000080000000000100481400000001200010020000000020000000000100040000004000000408000000000000000040000000802000000000100000000020000000002000000008000100000000000000201000280000200320120004040204808000000002200202c040000220040000020009010209000400400002002000001000040010000800000100000400000000000",
      "type": "0x2",
      "effectiveGasPrice": "0xcbade0cb"
    }
  ],
  "libraries": [],
  "pending": [],
  "returns": {},
  "timestamp": 1702017902,
  "chain": 1,
  "multi": false,
  "commit": "d382dea"
}