{
  "transactions": [
    {
      "hash": "0x961d101c17f85865b8eb25047fdd5869d8e7647951d2693b919e464889c7e44d",
      "transactionType": "CALL",
      "contractName": "Dai",
      "contractAddress": "0x6B175474E89094C44Da98b954EedeAC495271d0F",
      "function": "approve(address,uint256):(bool)",
      "arguments": [
        "0xd491DecCB5FD9a0d83d78E75EFD1f92d691Cf8C5",
        "3000000000000000000000"
      ],
      "transaction": {
        "type": "0x02",
        "from": "0xf39fd6e51aad88f6f4ce6ab8827279cfffb92266",
        "to": "0x6b175474e89094c44da98b954eedeac495271d0f",
        "gas": "0xf90a",
        "value": "0x0",
        "data": "0x095ea7b3000000000000000000000000d491deccb5fd9a0d83d78e75efd1f92d691cf8c50000000000000000000000000000000000000000000000a2a15d09519be00000",
        "nonce": "0x299",
        "accessList": []
      },
      "additionalContracts": [],
      "isFixedGasLimit": false
    },
    {
      "hash": "0x97c54df0705b9d9ff8b6afaf9d3a5170b55207d41375618420ab87769febb65a",
      "transactionType": "CALL",
      "contractName": null,
      "contractAddress": "0xd491DecCB5FD9a0d83d78E75EFD1f92d691Cf8C5",
      "function": null,
      "arguments": null,
      "transaction": {
        "type": "0x02",
        "from": "0xf39fd6e51aad88f6f4ce6ab8827279cfffb92266",
        "to": "0xd491deccb5fd9a0d83d78e75efd1f92d691cf8c5",
        "gas": "0x427aa",
        "value": "0x0",
        "data": "0x026e402b0000000000000000000000006b175474e89094c44da98b954eedeac495271d0f0000000000000000000000000000000000000000000000a2a15d09519be00000",
        "nonce": "0x29a",
        "accessList": []
      },
      "additionalContracts": [],
      "isFixedGasLimit": false
    }
  ],
  "receipts": [
    {
      "transactionHash": "0x961d101c17f85865b8eb25047fdd5869d8e7647951d2693b919e464889c7e44d",
      "transactionIndex": "0x0",
      "blockHash": "0x8e8c613c49bc3336460171e463c7954991e5a4e13699f31e903a0ea56fdacf8a",
      "blockNumber": "0x11ddfea",
      "from": "0xf39Fd6e51aad88F6F4ce6aB8827279cffFb92266",
      "to": "0x6B175474E89094C44Da98b954EedeAC495271d0F",
      "cumulativeGasUsed": "0xb44e",
      "gasUsed": "0xb44e",
      "contractAddress": null,
      "logs": [
        {
          "address": "0x6B175474E89094C44Da98b954EedeAC495271d0F",
          "topics": [
            "0x8c5be1e5ebec7d5bd14f71427d1e84f3dd0314c0f7b2291e5b200ac8c7c3b925",
            "0x000000000000000000000000f39fd6e51aad88f6f4ce6ab8827279cfffb92266",
            "0x000000000000000000000000d491deccb5fd9a0d83d78e75efd1f92d691cf8c5"
          ],
          "data": "0x0000000000000000000000000000000000000000000000a2a15d09519be00000",
          "blockHash": "0x8e8c613c49bc3336460171e463c7954991e5a4e13699f31e903a0ea56fdacf8a",
          "blockNumber": "0x11ddfea",
          "transactionHash": "0x961d101c17f85865b8eb25047fdd5869d8e7647951d2693b919e464889c7e44d",
          "transactionIndex": "0x0",
          "logIndex": "0x0",
          "transactionLogIndex": "0x0",
          "removed": false
        }
      ],
      "status": "0x1",
      "logsBloom": "0x00000000000000000400000000000000000000000200000000000000000000000000000000000000000000000000000000000000000000000000000000200000000000000000000000000008000000000000000000000000000000000000000010000000000000000000000100000000000000000000000000000000000000000000000000000000000000000000000000000000000000000000000000000000020000000000000000000000000000000000000000000000000000000000000000000000000000200000000000000000000002002000000000000000000000000010001000000000000000000000000000000000000000000000000000000000",
      "type": "0x2",
      "effectiveGasPrice": "0xe977a816"
    },
    {
      "transactionHash": "0x97c54df0705b9d9ff8b6afaf9d3a5170b55207d41375618420ab87769febb65a",
      "transactionIndex": "0x0",
      "blockHash": "0x5001656a23e93ebecf7d1135afa738a1ca764b59c851033874ce9d36ffb5a5c4",
      "blockNumber": "0x11ddfeb",
      "from": "0xf39Fd6e51aad88F6F4ce6aB8827279cffFb92266",
      "to": "0xd491DecCB5FD9a0d83d78E75EFD1f92d691Cf8C5",
      "cumulativeGasUsed": "0x2d74b",
      "gasUsed": "0x2d74b",
      "contractAddress": null,
      "logs": [
        {
          "address": "0x6B175474E89094C44Da98b954EedeAC495271d0F",
          "topics": [
            "0xddf252ad1be2c89b69c2b068fc378daa952ba7f163c4a11628f55a4df523b3ef",
            "0x000000000000000000000000f39fd6e51aad88f6f4ce6ab8827279cfffb92266",
            "0x000000000000000000000000d491deccb5fd9a0d83d78e75efd1f92d691cf8c5"
          ],
          "data": "0x0000000000000000000000000000000000000000000000a2a15d09519be00000",
          "blockHash": "0x5001656a23e93ebecf7d1135afa738a1ca764b59c851033874ce9d36ffb5a5c4",
          "blockNumber": "0x11ddfeb",
          "transactionHash": "0x97c54df0705b9d9ff8b6afaf9d3a5170b55207d41375618420ab87769febb65a",
          "transactionIndex": "0x0",
          "logIndex": "0x0",
          "transactionLogIndex": "0x0",
          "removed": false
        },
        {
          "address": "0x6B175474E89094C44Da98b954EedeAC495271d0F",
          "topics": [
            "0x8c5be1e5ebec7d5bd14f71427d1e84f3dd0314c0f7b2291e5b200ac8c7c3b925",
            "0x000000000000000000000000d491deccb5fd9a0d83d78e75efd1f92d691cf8c5",
            "0x0000000000000000000000003c2bafebbb0c8c58f39a976e725cd20d611d01e9"
          ],
          "data": "0xffffffffffffffffffffffffffffffffffffffffffffffffffffffffffffffff",
          "blockHash": "0x5001656a23e93ebecf7d1135afa738a1ca764b59c851033874ce9d36ffb5a5c4",
          "blockNumber": "0x11ddfeb",
          "transactionHash": "0x97c54df0705b9d9ff8b6afaf9d3a5170b55207d41375618420ab87769febb65a",
          "transactionIndex": "0x0",
          "logIndex": "0x1",
          "transactionLogIndex": "0x1",
          "removed": false
        },
        {
          "address": "0x6B175474E89094C44Da98b954EedeAC495271d0F",
          "topics": [
            "0xddf252ad1be2c89b69c2b068fc378daa952ba7f163c4a11628f55a4df523b3ef",
            "0x000000000000000000000000d491deccb5fd9a0d83d78e75efd1f92d691cf8c5",
            "0x0000000000000000000000003c2bafebbb0c8c58f39a976e725cd20d611d01e9"
          ],
          "data": "0x0000000000000000000000000000000000000000000000a2a15d09519be00000",
          "blockHash": "0x5001656a23e93ebecf7d1135afa738a1ca764b59c851033874ce9d36ffb5a5c4",
          "blockNumber": "0x11ddfeb",
          "transactionHash": "0x97c54df0705b9d9ff8b6afaf9d3a5170b55207d41375618420ab87769febb65a",
          "transactionIndex": "0x0",
          "logIndex": "0x2",
          "transactionLogIndex": "0x2",
          "removed": false
        },
        {
          "address": "0x3C2BafebbB0c8c58f39A976e725cD20D611d01e9",
          "topics": [
            "0xddf252ad1be2c89b69c2b068fc378daa952ba7f163c4a11628f55a4df523b3ef",
            "0x0000000000000000000000000000000000000000000000000000000000000000",
            "0x000000000000000000000000d491deccb5fd9a0d83d78e75efd1f92d691cf8c5"
          ],
          "data": "0x0000000000000000000000000000000000000000000000a2a15d09519be00000",
          "blockHash": "0x5001656a23e93ebecf7d1135afa738a1ca764b59c851033874ce9d36ffb5a5c4",
          "blockNumber": "0x11ddfeb",
          "transactionHash": "0x97c54df0705b9d9ff8b6afaf9d3a5170b55207d41375618420ab87769febb65a",
          "transactionIndex": "0x0",
          "logIndex": "0x3",
          "transactionLogIndex": "0x3",
          "removed": false
        },
        {
          "address": "0x3C2BafebbB0c8c58f39A976e725cD20D611d01e9",
          "topics": [
            "0xdcbc1c05240f31ff3ad067ef1ee35ce4997762752e3a095284754544f4c709d7",
            "0x000000000000000000000000d491deccb5fd9a0d83d78e75efd1f92d691cf8c5",
            "0x000000000000000000000000d491deccb5fd9a0d83d78e75efd1f92d691cf8c5"
          ],
          "data": "0x0000000000000000000000000000000000000000000000a2a15d09519be000000000000000000000000000000000000000000000000000a2a15d09519be00000",
          "blockHash": "0x5001656a23e93ebecf7d1135afa738a1ca764b59c851033874ce9d36ffb5a5c4",
          "blockNumber": "0x11ddfeb",
          "transactionHash": "0x97c54df0705b9d9ff8b6afaf9d3a5170b55207d41375618420ab87769febb65a",
          "transactionIndex": "0x0",
          "logIndex": "0x4",
          "transactionLogIndex": "0x4",
          "removed": false
        }
      ],
      "status": "0x1",
      "logsBloom": "0x00000000000000000400000000000000000000000200000000000000000000000000000000000000000000000000000000000000000000000000000000200000000000400000000000010008000000000000000000000000000000000000000010000000020020002000000100000800000000000004000000000010000000000000000000000000001000000000000000000000000000000000000000000000020000000000000000000000000000000000000000000000000000000000000000000002000000200000000000000000000002002008000000000000000020000010001000000400000002000000000000000000000000000000000000000000",
      "type": "0x2",
      "effectiveGasPrice": "0xe2a8208e"
    }
  ],
  "libraries": [],
  "pending": [],
  "returns": {},
  "timestamp": 1702016692,
  "chain": 1,
  "multi": false,
  "commit": "d382dea"
}